:020000040800F2
:10000000C01C002059730008BD710008BF710008B2
:10001000C1710008C3710008C5710008000000002C
:10002000000000000000000000000000C771000890
:10003000C971000800000000CB710008CD710008F4
:10004000CD730008D1730008D5730008D973000878
:10005000DD730008E1730008E5730008E973000828
:10006000ED730008F1730008F5730008F9730008D8
:10007000FD73000801740008057400080974000885
:100080000D74000811740008157400081974000834
:10009000D57100081D74000821740008257400083B
:1000A000297400089F4800082D7400083174000866
:1000B00035740008397400083D7400084174000864
:1000C00045740008497400084D7400085174000814
:1000D00055740008597400085D74000861740008C4
:1000E00065740008697400086D7400080EB401009E
:1000F000002003B0704701000020A1F844004FF435
:100100003F42A1F840200020704701004FF43F42D9
:10011000B1F840009043A1F8400000207047020071
:10012000002070470EB401000120A1F8400000201B
:10013000A1F840000020A1F844000020A1F85000E0
:10014000002003B07047F0B503000A0000201178CA
:1001500033F8214048F68F110C40D178002905D0A2
:10016000022906D009D3032904D009E054F400740D
:1001700008E007E054F4C06404E054F4806401E053
:100180000121080048F2800555EA0401167823F899
:10019000261048F68F76117833F8217037401178A1
:1001A0000F432F43117823F82170117B002940F071
:1001B000AC80517800293ED01F00B3F85010CF1901
:1001C000117817EB011111F58061B2F806C01FFA22
:1001D0008CFC5FEA5C0C5FEA4C0CA1F800C0117863
:1001E00033F821105FEA416C0AD5177833F827708D
:1001F0003E4046F4004656F0C006177823F82760C4
:10020000D17801290CD0117833F8216048F6BF71FC
:100210000E4096F020063543117823F8215029E14D
:10022000117833F8216048F6BF710E4035431178DC
:1002300023F821501EE19C46B3F8501011EB0C0C32
:100240001178C9001CEB410111F58161D788BFB25B
:100250007F087F000F801F00B3F85010CF1911786E
:10026000C90017EB410E0EF20C4E116900290ED198
:10027000BEF800C048F2FF3111EA0C0CAEF800C025
:10028000BEF8001051F40041AEF800101DE01169F5
:100290003F290CD21169490892F810C05FEACC7C62
:1002A00000D5491C5FEA812CAEF800C00DE0116951
:1002B000490992F810C01CF01F0F00D1491E5FEAD7
:1002C000812C5CF4004CAEF800C0117833F821109A
:1002D0005FEA414C0AD5177833F827703E4046F460
:1002E000404656F08006177823F82760117833F8D7
:1002F00021604BF68F710E4096F4805696F40056AE
:100300003543117823F82150B4E0117833F82110E7
:10031000314041F4014151F08001177823F8271052
:100320001F00B3F85010CF19117817EB011111F518
:100330008061B2F808C01FFA8CFC5FEA5C0C5FEACF
:100340004C0CA1F800C09C46B3F8501011EB0C0CFB
:100350001178C9001CEB410111F58161B2F80AE086
:100360001FFA8EFE5FEA5E0E5FEA4E0EA1F800E015
:100370005178002939D1117833F821104F040BD569
:10038000177833F82770374047F4404757F0800715
:1003900092F800C023F82C70117833F821104F0622
:1003A0000AD5177833F827703E4046F4004656F0D9
:1003B000C006177823F82760117833F821604BF6D0
:1003C0008F710E4096F4805696F400562E431178A5
:1003D00023F82160117833F8216048F6BF710E4090
:1003E0003543117823F8215044E0117833F8211077
:1003F0004F040BD5177833F82770374047F4404740
:1004000057F0800792F800C023F82C70117833F869
:1004100021104F060AD5177833F827703E4046F46E
:10042000004656F0C006177823F82760D1780129D6
:100430000CD0117833F8216048F6BF710E4096F069
:1004400020062E43117823F8216009E0117833F853
:10045000216048F6BF710E402E43117823F82160C9
:10046000117833F821604BF68F710E4035431178C7
:1004700023F82150C0B2F0BD10B40200087B002860
:1004800042D1487800281FD0087832F8203058062A
:100490000CD5087832F8204048F68F70044044F4B8
:1004A000004454F0C004087822F82040087832F85C
:1004B000203048F6BF70034043F4004353F08003FC
:1004C000087822F82030B1E0087832F8203058045B
:1004D0000CD5087832F8204048F68F70044044F478
:1004E000404454F08004087822F82040087832F81C
:1004F00020304BF68F70034043F4004353F08003E9
:10050000087822F8203091E04878002847D1087810
:1005100032F8203058040CD5087832F8204048F6DC
:100520008F70044044F4404454F08004087822F86A
:100530002040087832F8203058060CD5087832F878
:10054000204048F68F70044044F4004454F0C00446
:10055000087822F82040087832F8203048F68F706A
:10056000034043F4004353F0C003087822F82030DE
:10057000087832F820404BF68F70044048F2800330
:100580001C43087822F82040087832F8204048F6CA
:10059000BF7004402343087822F8203046E00878F2
:1005A00032F8203058040CD5087832F8204048F64C
:1005B0008F70044044F4404454F08004087822F8DA
:1005C0002040087832F8203058060CD5087832F8E8
:1005D000204048F68F70044044F4004454F0C004B6
:1005E000087822F82040087832F8203048F68F70DA
:1005F000034043F4404353F08003087822F820304E
:10060000087832F8204048F6BF70044048F2800372
:100610001C43087822F82040087832F820404BF636
:100620008F7004402343087822F82030002010BC4B
:1006300070472DE9F84305000E007078012840F05E
:1006400020833069B169884202D23069040001E038
:10065000B0690400307B002812D123009BB2F288DD
:100660007169280000F032FD2900B5F850004118EA
:100670003078C00011EB400000F204400480EEE24C
:10068000F078022840F089813069316A884280F030
:100690005E81307835F8201048F68F70014041F4C3
:1006A000014151F08001307825F82010306A001B9C
:1006B0003062307835F82000400640F1A4802900EF
:1006C0007078002832D12A00B5F8500082183078AE
:1006D000C00012EB400303F20C43002C0CD1B3F822
:1006E00000C048F2FF3010EA0C0CA3F800C01888D4
:1006F00050F40040188018E03F2C0AD22000400837
:100700005FEAC47C00D5401C5FEA802CA3F800C0DF
:100710000BE02000400914F01F0F00D1401E5FEADB
:10072000802C5CF4004CA3F800C00CE07078012829
:1007300009D1B5F8500041183078C00011EB4000E5
:1007400000F20C400480B6F80A9023009BB24A469F
:1007500092B27169280000F0B9FC706920447061A0
:100760003069316A884203D2306A001B306203E08C
:10077000306A040000203062707800282AD12900F5
:10078000B5F8500041183078C00011EB400202F279
:100790000442002C09D1138848F2FF300340138033
:1007A000108850F40040108013E03F2C07D2200046
:1007B0004008E30700D5401C8302138009E02000B5
:1007C000400914F01F0F00D1401E830253F4004370
:1007D00013800DE0707801280AD12900B5F8500087
:1007E00041183078C00011EB400000F20440048052
:1007F000B6F8088023009BB2424692B27169280085
:1008000000F064FC2BE2707800282AD12900B5F8AA
:10081000500041183078C00011EB400202F204424F
:10082000002C09D1138848F2FF3003401380108850
:1008300050F40040108013E03F2C07D22000400805
:10084000E30700D5401C8302138009E02000400923
:1008500014F01F0F00D1401E830253F40043138095
:100860000DE0707801280AD12900B5F85000411830
:100870003078C00011EB400000F204400480B6F86C
:10088000089023009BB24A4692B27169280000F09A
:100890001DFC7069204470613069316A884203D25E
:1008A000306A001B306203E0306A040000203062CE
:1008B00029007078002832D12A00B5F8500082183B
:1008C0003078C00012EB400303F20C43002C0CD133
:1008D000B3F800C048F2FF3010EA0C0CA3F800C0D7
:1008E000188850F40040188018E03F2C0AD22000ED
:1008F00040085FEAC47C00D5401C5FEA802CA3F866
:1009000000C00BE02000400914F01F0F00D1401E72
:100910005FEA802C5CF4004CA3F800C00CE0707817
:10092000012809D1B5F8500041183078C00011EB0A
:10093000400000F20C400480B6F80A8023009BB20D
:10094000424692B27169280000F0C0FB87E1306A2C
:100950000400307835F8201048F68F60014041F4EB
:10096000004151F08001307825F82010A946B5F8F3
:10097000500010EB09093078C00019EB400000F27C
:10098000044004803089804623009BB2424692B2E4
:100990007169280000F09AFB61E1307835F8201089
:1009A00048F68F70014041F4014151F080013078E8
:1009B00025F82010306A001B3062307835F82000AE
:1009C000400640F1A78029007078002832D12A0023
:1009D000B5F8500082183078C00012EB400303F2E3
:1009E0000C43002C0CD1B3F800C048F2FF3010EAE1
:1009F0000C0CA3F800C0188850F40040188018E0D0
:100A00003F2C0AD2200040085FEAC47C00D5401C7D
:100A10005FEA802CA3F800C00BE02000400914F02E
:100A20001F0F00D1401E5FEA802C5CF4004CA3F83D
:100A300000C00CE07078012809D1B5F850004118C9
:100A40003078C00011EB400000F20C400480708947
:100A5000804623009BB2424692B27169280000F0A2
:100A600035FB7069204470613069316A884203D275
:100A7000306A001B306203E0306A040000203062FC
:100A8000002C00F0EC80707800282AD12900B5F8FD
:100A9000500041183078C00011EB400202F20442CD
:100AA000002C09D1138848F2FF30034013801088CE
:100AB00050F40040108013E03F2C07D22000400883
:100AC000E30700D5401C8302138009E020004009A1
:100AD00014F01F0F00D1401E830253F40043138013
:100AE0000DE0707801280AD12900B5F850004118AE
:100AF0003078C00011EB400000F2044004803089DF
:100B0000804623009BB2424692B27169280000F0F1
:100B1000DDFAA4E0707800282AD12900B5F8500049
:100B200041183078C00011EB400202F20442002C60
:100B300009D1138848F2FF3003401380108850F425
:100B40000040108013E03F2C07D220004008E3074C
:100B500000D5401C8302138009E02000400914F0F6
:100B60001F0F00D1401E830253F4004313800DE099
:100B7000707801280AD12900B5F850004118307862
:100B8000C00011EB400000F2044004803089804630
:100B900023009BB2424692B27169280000F096FA97
:100BA0007069204470613069316A884203D2306ACA
:100BB000001B306203E0306A040000203062002C29
:100BC0004DD029007078002832D12A00B5F85000A5
:100BD00082183078C00012EB400303F20C43002C63
:100BE0000CD1B3F800C048F2FF3010EA0C0CA3F8A7
:100BF00000C0188850F40040188018E03F2C0AD23A
:100C0000200040085FEAC47C00D5401C5FEA802CCD
:100C1000A3F800C00BE02000400914F01F0F00D122
:100C2000401E5FEA802C5CF4004CA3F800C00CE08E
:100C30007078012809D1B5F8500041183078C0000B
:100C400011EB400000F20C400480708980462300C4
:100C50009BB2424692B27169280000F037FA3078B0
:100C600035F8201048F6BF70014091F0100191F066
:100C7000200141F4004151F08001307825F8201026
:100C800092E1307B002838D13069B169884205D2C1
:100C900030690400B069001BB06103E0B069040072
:100CA0000020B0612900B5F8500041183078C0002C
:100CB00011EB400202F20C42002C09D1138848F2D9
:100CC000FF3003401380108850F40040108013E080
:100CD0003F2C07D220004008E30700D5401C8302C8
:100CE000138009E02000400914F01F0F00D1401EBE
:100CF000830253F40043138045E1F078022840F06A
:100D0000AD80707800282ED12900B5F85000411828
:100D10003078C00011EB400202F204423069002832
:100D200009D1138848F2FF3003401380108850F433
:100D30000040108016E030693F2808D23069400832
:100D4000337CDB0700D5401C830213800AE0306946
:100D50004009337C13F01F0F00D1401E830253F46F
:100D6000004313800EE0707801280BD12900B5F8FC
:100D7000500041183078C00011EB400000F20440F0
:100D80003269028029007078002838D12A00B5F82D
:100D9000500082183078C00012EB400303F20C437D
:100DA000306900280CD1B3F800C048F2FF3010EAD7
:100DB0000C0CA3F800C0188850F4004018801DE007
:100DC00030693F280CD23069400896F810C05FEABD
:100DD000CC7C00D5401C5FEA802CA3F800C00DE05D
:100DE0003069400996F810C01CF01F0F00D1401E5A
:100DF0005FEA802C5CF4004CA3F800C00DE0707832
:100E000001280AD1B5F8500041183078C00011EB24
:100E1000400000F20C4032690280F069002800F0C6
:100E2000B280307835F82000070044F2400010EA24
:100E30000701020089B2914202D0074240F0A3802C
:100E4000307835F8201048F68F70014041F40041A9
:100E500051F0C001307825F8201094E0F078012896
:100E600040F08F803069B169884205D23069040052
:100E7000B069001BB06103E0B06904000020B061FC
:100E8000707800282AD12900B5F850004118307830
:100E9000C00011EB400202F20442002C09D1138879
:100EA00048F2FF3003401380108850F40040108057
:100EB00013E03F2C07D220004008E30700D5401C78
:100EC0008302138009E02000400914F01F0F00D1B5
:100ED000401E830253F4004313800DE07078012814
:100EE0000AD12900B5F8500041183078C00011EB44
:100EF000400000F20440048029007078002832D1BC
:100F00002A00B5F8500082183078C00012EB400378
:100F100003F20C43002C0CD1B3F800C048F2FF30B0
:100F200010EA0C0CA3F800C0188850F40040188098
:100F300018E03F2C0AD2200040085FEAC47C00D5AC
:100F4000401C5FEA802CA3F800C00BE020004009A1
:100F500014F01F0F00D1401E5FEA802C5CF4004C9F
:100F6000A3F800C00CE07078012809D1B5F8500052
:100F700041183078C00011EB400000F20C400480B2
:100F800001E0012011E0307835F820104BF68F7029
:100F9000014091F4805191F4005141F4004151F02D
:100FA0008001307825F820100020BDE8F28302008F
:100FB000487800280FD0087832F8203048F6BF7003
:100FC000034093F0100343F4004353F08003087888
:100FD00022F820300EE0087832F820304BF68F707F
:100FE000034093F4805343F4004353F080030878A4
:100FF00022F820300020704710B40200087B00283F
:101000004AD14878002824D0087832F82030580691
:101010000CD5087832F8204048F68F70044044F42C
:10102000004454F0C004087822F82040C878012811
:1010300032D0087832F8203048F6BF70034093F081
:10104000200343F4004353F08003087822F8203053
:1010500022E0087832F8203058040CD5087832F8AD
:10106000204048F68F70044044F4404454F080041B
:10107000087822F82040087832F820304BF68F703C
:10108000034093F4805393F4005343F4004353F02C
:101090008003087822F82030002010BC704702003E
:1010A0000800C0B2002802D18020A2F84C00002025
:1010B00070470100002070470100002070470100C8
:1010C000B1F8440070470200002070472DE9F0435A
:1010D00004001F00BFB27F1C7F08A4468846100092
:1010E00080B21CEB400E1EF5806E3800002817D031
:1010F00098F800904D4618F1010898F800905FEAC2
:1011000009291FFA89F959EA05094E46AEF8006027
:101110001EF1020E1EF1020E18F10108401EE5E755
:10112000BDE8F0832DE9F04104001E00B6B2760858
:1011300027008C46100080B217EB400E1EF5806E23
:101140003000002813D0BEF8008045461EF1020E84
:101150008CF800501CF1010CA8465FEA18288CF8A6
:1011600000801CF1010C1EF1020E401EE9E75FEA4F
:10117000C37804D5BEF8008045468CF80050BDE821
:10118000F081B1F5807F02D34FF0FF3070470170DE
:10119000012070470078401E8041C043C00F704757
:1011A00030B585B00400002C01D10120A9E094F8ED
:1011B000A902002805D1002084F8A802200001F02F
:1011C00015F8032084F8A9022068FEF79EFF211D70
:1011D00083B06846202201F0D1F90EBC2068FEF7EA
:1011E00085FF002804D0022084F8A902012088E0AD
:1011F00000212068FEF793FF00200100C9B2626859
:10120000914230D228210200D2B24A432244012323
:1012100082F829300200D2B24A43224482F82800E0
:101220000200D2B24A4322440300DBB2D38602005A
:10123000D2B24A432244002382F82B300200D2B2B9
:101240004A432244002393630200D2B24A43224419
:101250000023D3630200D2B201FB02F12144002239
:101260000A64401CC9E700252800C0B261688842B2
:101270002CD228202900C9B241432144002281F800
:1012800069212900C9B24143214481F868512900EC
:10129000C9B241432144002281F86B212900C9B21F
:1012A000414321440022C1F878212900C9B24143B9
:1012B00021440022C1F87C212900C9B200FB01F0C1
:1012C00020440021C0F880116D1CCDE7211D83B0A2
:1012D0006846202201F052F90EBC2068FEF722FF7A
:1012E000002804D0022084F8A902012009E000208F
:1012F00084F82400012084F8A9022068FFF7DCFEAE
:10130000002005B030BD10B5040094F8A8020128F3
:1013100001D1022010E0012084F8A8022068FEF725
:10132000EAFE0121200001F000F92068FFF7C1FE6C
:10133000002084F8A802002010BD38B584B0040055
:101340002068FFF7BCFE000402D5200000F066FA1A
:101350002068FFF7B4FE40050FD52068B0F84410B0
:101360004FF6FF3001402068A0F84410200000F044
:101370008BFF0021200000F0C2F82068FFF79FFEDD
:10138000400408D52068B0F844104BF6FF700140C7
:101390002068A0F844102068FFF791FE800408D56B
:1013A0002068B0F844104DF6FF7001402068A0F8A6
:1013B00044102068FFF783FEC0041DD52068B0F8F4
:1013C00040104FF6FB7001402068A0F840102068E4
:1013D000B0F840104FF6F77001402068A0F84010B8
:1013E000200000F073FF2068B0F844104EF6FF7044
:1013F00001402068A0F844102068FFF760FE000557
:101400005CD500210800C0B208280BD220680A0071
:10141000D2B230F822006A460B00DBB222F8130089
:10142000491CEFE72068B0F8400050F00100226846
:10143000A2F840002068B0F840204FF6FE7002404D
:101440002068A0F840202068B0F844004005FAD594
:101450002068B0F844204FF6FF3002402068A0F822
:10146000442000252800C0B208280BD26846290075
:10147000C9B230F8110021682A00D2B221F8220046
:101480006D1CEFE72068B0F8400050F008002168BC
:10149000A1F840002068B0F844104FF2FF700140FE
:1014A0002068A0F844102068B0F8400050F0040014
:1014B0002168A1F84000200000F0F9FE2068FFF745
:1014C000FEFD80050BD52068B0F844104FF6FF50A4
:1014D00001402068A0F84410200000F0CEFE2068F3
:1014E000FFF7EDFDC00508D52068B0F844104FF6B1
:1014F000FF6001402068A0F8441005B030BD38B549
:1015000004000D0094F8A802012801D102200DE08A
:10151000012084F8A80284F824502900C9B2206868
:10152000FFF7BDFD002084F8A802002032BD2DE9A0
:10153000F84304000D0016001F005FF000082800AB
:10154000C0B200060DD52900C9B211F0070128204C
:10155000414304EB010010F12809012089F8010042
:101560000CE02900C9B211F007012820414304EB27
:10157000010010F5B479002089F8010015F007008A
:1015800089F80000300080B2C9F8100089F80370B3
:1015900099F80100002803D099F80000A9F80E007E
:1015A0003800C0B2022802D1002089F8040094F863
:1015B000A802012801D102200BE0012084F8A80232
:1015C00049462068FEF7BFFD002084F8A802404687
:1015D000C0B2BDE8F28370B504000D002800C0B2AF
:1015E00000060CD52900C9B211F00701282041439B
:1015F00004EB010010F12806012070700BE02900B7
:10160000C9B211F007012820414304EB010010F595
:10161000B4760020707015F00700307094F8A802BE
:10162000012801D102200AE0012084F8A80231003B
:101630002068FEF721FF002084F8A802002070BD7A
:101640002DE9F04104000F0015001E003900C9B259
:1016500011F007012820414304EB010010F5B47894
:10166000C8F81450C8F818600020C8F81C00002002
:1016700088F8010017F0070088F8000017F0070F3E
:1016800004D141462068FEF7D4FF03E041462068BC
:10169000FEF7CFFF0020BDE8F081C9B211F00701CD
:1016A000282251430844D0F8840170472DE9F041C5
:1016B00004000F0015001E003900C9B211F0070127
:1016C0002820414304EB010010F12808C8F8145009
:1016D000C8F81860012088F82400C8F820600020AD
:1016E000C8F81C00012088F8010017F0070088F8EE
:1016F000000017F0070F04D141462068FEF799FF5C
:1017000003E041462068FEF794FF0020BDE8F08129
:1017100070B504000D0060682900C9B211F007011E
:10172000884201D2012038E02800C0B200060CD562
:101730002900C9B211F007012820414304EB010040
:1017400010F128060120707009E02900C9B2282094
:10175000414304EB010010F5B476002070700120C5
:10176000B07015F00700307094F8A802012801D17C
:10177000022012E0012084F8A80231002068FFF75F
:1017800016FC15F0070F04D114F52C712068FFF733
:101790009AFC002084F8A802002070BD70B50400F7
:1017A0000D0060682900C9B211F00F01884201D212
:1017B000012032E02800C0B200060CD52900C9B2D1
:1017C00011F007012820414304EB010010F1280625
:1017D000012070700BE02900C9B211F00701282028
:1017E000414304EB010010F5B47600207070002036
:1017F000B07015F00700307094F8A802012801D1EC
:1018000002200AE0012084F8A80231002068FFF7D6
:10181000F3FB002084F8A802002070BD2DE9F84FEA
:1018200004002068B0F84400000440F1FB81206807
:10183000B0F84400070017F00F0082465046C0B2CF
:10184000002840F0DE80F80635D42068018848F68C
:101850000F70014051F400412068018014F128000C
:1018600005002068B0F85000297810EBC10021680D
:1018700011EB400101F20441088880B28005800D1F
:10188000E8616869E969084468610021200000F0A6
:10189000E3FC94F824000028C3D0A8690028C0D134
:1018A00094F8240050F080002168A1F84C0000203A
:1018B00084F82400B5E714F5B470050020680088AA
:1018C00080465FEA085024D52068B0F85000297897
:1018D00010EBC100216811EB400101F20C410888B6
:1018E00080B28005800DE861EB699BB2EA8814F54F
:1018F0002C712068FFF716FC2068018840F68F7075
:10190000014051F0800120680180200000F089FC36
:1019100087E75FEA084084D52068018840F68F7029
:10192000014051F08001206801802068B0F850002B
:10193000297810EBC100216811EB400101F20C4144
:10194000088880B28005800DE861E869002811D020
:10195000686900280ED0EB699BB2EA886969206843
:10196000FFF7E0FB6869E96908446861002120002D
:1019700000F060FC2068008800053FF552AF216848
:101980002068B0F85000411801F20C4083462869E5
:1019900000280DD1BBF8002048F2FF300240ABF820
:1019A0000020BBF8000050F40040ABF8000018E045
:1019B00028693F2809D2286940082A7CD20700D527
:1019C000401C8202ABF800200BE0286940092A7C09
:1019D00012F01F0F00D1401E820252F40042ABF8F9
:1019E0000020206802884BF68F70024092F48052EB
:1019F00092F4005242F4004252F0800220680280C9
:101A00000FE720685146C9B230F8210080465FEAEE
:101A1000084040F1A68020685146C9B230F8211034
:101A200040F68F70014051F0800120685246D2B2DA
:101A300020F822105146C9B22820414304EB01008E
:101A400010F5B4700500287B00281AD12068B0F882
:101A50005000297810EBC100216811EB400101F220
:101A60000C4108888005800D0600300080B20028F7
:101A70005CD033009BB2EA8869692068FFF752FBAB
:101A800054E0E878022807D1424692B229002000AB
:101A900000F0CBF8060049E02068297830F82110E2
:101AA00048F68F70014041F4004151F0C0012068B8
:101AB0002A7820F822102068297830F82100400484
:101AC0001AD52068B0F85000297810EBC1002168C1
:101AD00011EB400101F2044108888005800D0600E9
:101AE000300080B2002821D033009BB22A89696976
:101AF0002068FFF717FB19E02068B0F8500029783C
:101B000010EBC100216811EB400101F20C41088883
:101B10008005800D0600300080B2002806D033001A
:101B20009BB26A8969692068FFF7FCFAE9693000AD
:101B300080B24118E9616869310089B2084468617E
:101B4000A869002804D0300080B22969884204D2F4
:101B50002978200000F06EFB03E029002068FEF7E2
:101B600068FD5FEA08607FF55CAE5146C9B2282087
:101B7000414304EB01002830050020685146C9B2FA
:101B800030F8211048F60F70014051F400412068F0
:101B90005246D2B220F82210E878032808D0E8781C
:101BA000002805D0E878022835D15FEAC85032D441
:101BB0002068B0F85000297810EBC100216811EBC3
:101BC000400101F2044108888005800D81464846A5
:101BD00080B2A969884205D2A969484680B2091A2B
:101BE000A96101E00020A861A869002804D1297832
:101BF000200000F031FB14E66869494689B20844C8
:101C00006861E969484680B24118E96129002068A5
:101C1000FEF70FFD05E6424692B22900200000F0D3
:101C2000A4F8FEE50020BDE8F28FF8B504000D0031
:101C3000160070044BD52068B0F85000297810EBDE
:101C4000C100216811EB400101F204410F88BF057A
:101C5000BF0DA869390089B2884205D3A969380047
:101C600080B2091AA96101E00020A861A8690028D2
:101C700010D12068297830F821104BF68F70014080
:101C800091F4005141F4004151F0800120682A781C
:101C900020F8221070060ED52068297830F821101F
:101CA00048F68F70014041F4004151F0C0012068B6
:101CB0002A7820F82210380080B2002852D03B0049
:101CC0009BB22A8969692068FFF72CFA4AE02068EC
:101CD000B0F85000297810EBC100216811EB4001E9
:101CE00001F20C410F88BF05BF0DA869390089B208
:101CF000884205D3A969380080B2091AA96101E0B8
:101D00000020A861A869002810D12068297830F83F
:101D100021104BF68F70014091F4005141F40041C5
:101D200051F0800120682A7820F8221070060ED425
:101D30002068297830F8211048F68F70014041F46E
:101D4000004151F0C00120682A7820F822103800A4
:101D500080B2002806D03B009BB26A89696920687E
:101D6000FFF7E0F9380080B2F2BD2DE9F04105003F
:101D70000E001700780640F10C812868B0F850007A
:101D8000317810EBC100296811EB400101F20441E8
:101D9000B1F800805FEA88585FEA9858404680B200
:101DA000B169884205D2B169404680B2091AB16171
:101DB00001E00020B061B069002869D17078002886
:101DC00014D129682868B0F8500041183078C00054
:101DD00011EB400202F20442138848F2FF30034044
:101DE0001380108850F4004010800FE070780128B4
:101DF0000CD129682868B0F8500041183078C0002C
:101E000011EB400000F20440002202802968707843
:101E1000002817D12A682868B0F850008218307856
:101E2000C00012EB400303F20C43B3F800C048F2C9
:101E3000FF3010EA0C0CA3F800C0188850F40040E2
:101E400018800EE0707801280BD12868B0F8500097
:101E500041183078C00011EB400000F20C40002225
:101E600002803178280000F0F7F9780440F1A3816E
:101E70002868317830F8211048F68F70014041F41D
:101E8000404151F080012868327820F8221092E118
:101E900078040ED52868317830F8211048F68F7014
:101EA000014041F4404151F080012868327820F827
:101EB000221096F82400012840F07D817069414687
:101EC00089B208447061F169404680B24118F161FD
:101ED000306A3169884205D330690400306A001BDA
:101EE000306210E0306A002806D1404680B204001B
:101EF000002086F8240006E0002086F82400306ADE
:101F0000040000203062707800282BD129682868EE
:101F1000B0F8500041183078C00011EB400202F2D6
:101F20000442002C09D1138848F2FF30034013808B
:101F3000108850F40040108013E03F2C07D220009E
:101F40004008E30700D5401C8302138009E020000D
:101F5000400914F01F0F00D1401E830253F40043C8
:101F600013800EE0707801280BD129682868B0F83A
:101F7000500041183078C00011EB400000F20440DE
:101F8000048023009BB2328971692868FFF79EF8AC
:101F900011E12868B0F85000317810EBC1002968D1
:101FA00011EB400101F20C41B1F800805FEA885862
:101FB0005FEA9858B069414689B2884205D3B16951
:101FC000404680B2091AB16101E00020B061B069F9
:101FD000002869D17078002814D129682868B0F8E1
:101FE000500041183078C00011EB400202F2044268
:101FF000138848F2FF3003401380108850F40040EB
:1020000010800FE0707801280CD129682868B0F89A
:10201000500041183078C00011EB400000F204403D
:102020000022028029687078002817D12A68286861
:10203000B0F8500082183078C00012EB400303F271
:102040000C43B3F800C048F2FF3010EA0C0CA3F8C0
:1020500000C0188850F4004018800EE07078012805
:102060000BD12868B0F8500041183078C00011EB4F
:10207000400000F20C40002202803178280000F07D
:10208000EBF8780400F197802868317830F8211057
:1020900048F68F70014041F4404151F080012868BA
:1020A000327820F8221086E078040ED4286831783F
:1020B00030F8211048F68F70014041F4404151F052
:1020C00080012868327820F8221096F82400012830
:1020D00071D17069414689B208447061F169404626
:1020E00080B24118F161306A3169884205D33069A4
:1020F0000400306A001B306210E0306A002806D10C
:10210000404680B20400002086F8240006E0306AD1
:10211000040000203062002086F8240029687078CE
:10212000002833D12A682868B0F850008218307827
:10213000C00012EB400303F20C43002C0CD1B3F8A7
:1021400000C048F2FF3010EA0C0CA3F800C0188859
:1021500050F40040188018E03F2C0AD220004008BC
:102160005FEAC47C00D5401C5FEA802CA3F800C065
:102170000BE02000400914F01F0F00D1401E5FEA61
:10218000802C5CF4004CA3F800C00DE070780128AE
:102190000AD12868B0F8500041183078C00011EB1F
:1021A000400000F20C40048023009BB272897169E8
:1021B0002868FEF78BFF2868317830F8211048F640
:1021C000BF70014091F0100191F0200141F40041F5
:1021D00051F080012868327820F822100020BDE8F4
:1021E000F0810268531C0360117070471CB5040035
:1021F0002068DFF82013884212D1DFF81C03016841
:1022000051F400010160006810F400000090009893
:1022100000220021142000F06CFA142000F07EFA55
:1022200013BD10B5040014F52C71D4F8E80200F0C9
:10223000E6FA10BD38B504000D002900C9B2282007
:10224000414304EB0100D0F87C212900C9B2D4F845
:10225000E80200F008FB31BD38B504000D0029008C
:10226000C9B22820414304EB0100C26B2900C9B266
:10227000D4F8E80200F04EFB31BD10B50400D4F8EC
:10228000E80200F016FC10BD38B504000125A06876
:10229000022801D000F0D0FD2900C9B2D4F8E8022C
:1022A00000F0EEFBD4F8E80200F0BAFB31BD10B547
:1022B0000400D4F8E80200F0E7FBA069002804D08D
:1022C0009648016851F00601016010BD10B5040088
:1022D000D4F8E80200F0E2FB10BD10B5040090480D
:1022E000C0F8E842C4F8C0028A4901600821416090
:1022F00002218160002181610021C1610021016210
:10230000FEF74EFF002801D000F096FD18230022B2
:102310000021D4F8C00200F091FD58230022802152
:10232000D4F8C00200F08AFDC02300228121D4F835
:10233000C00200F083FD4FF4887300220121D4F81D
:10234000C00200F07BFD4FF4807300228221D4F89C
:10235000C00200F073FD002010BDF8B50400002598
:102360000027D4F8C002FEF7CEFF06003000C0B24E
:1023700000F0DCF8C0B2F2BD2DE9F04704000D001A
:1023800016001F005FF000085FF0000A3300DBB2A8
:102390003A0092B22900C9B2D4F8C002FFF7C7F8D8
:1023A00081464846C0B200F0C1F8C0B2BDE8F0872F
:1023B0002DE9F04104000D0000265FF0000829001F
:1023C000C9B2D4F8C002FFF706F907003800C0B25E
:1023D00000F0ACF8C0B2BDE8F0812DE9F041040096
:1023E0000D0000265FF000082900C9B2D4F8C00231
:1023F000FFF78EF907003800C0B200F097F8C0B2BE
:10240000BDE8F0812DE9F04104000D0000265FF0E9
:1024100000082900C9B2D4F8C002FFF7BFF90700CD
:102420003800C0B200F082F8C0B2BDE8F08102000E
:10243000D2F8C0320800C0B2000609D5C9B211F006
:102440007F012820414303EB010090F82A0008E0B7
:10245000C9B211F07F012820414303EB010090F83D
:102460006A0170472DE9F04104000D0000265FF07D
:1024700000082900C9B2D4F8C002FFF740F80700ED
:102480003800C0B200F052F8C0B2BDE8F0812DE9CA
:10249000F04704000D0016001F005FF000085FF019
:1024A000000A3B009BB232002900C9B2D4F8C00236
:1024B000FFF7FCF881464846C0B200F037F8C0B2DA
:1024C000BDE8F0872DE9F04704000D0016001F005D
:1024D0005FF000085FF0000A3B009BB23200290069
:1024E000C9B2D4F8C002FFF7ABF881464846C0B283
:1024F00000F01CF8C0B2BDE8F08738B504000D004C
:102500002900C9B2D4F8C002FFF7C7F832BD0100F4
:1025100004487047005C00401C10024010ED00E0D1
:10252000D8090020880F0020704770470100002262
:102530000800C0B2002805D0022807D004D3032821
:1025400006D007E0002006E0022004E0012002E0BF
:10255000022000E00220C0B270472E0062B38B0759
:1025600008D0521E11F8013B00F8013B00F0248016
:102570008B07F6D1830740F0208000BF103A07D3C5
:1025800030B4B1E83810103AA0E83810F9D230BCB5
:10259000530724BFB1E80810A0E8081044BF51F861
:1025A000043B40F8043BD20724BF31F8022B20F84B
:1025B000022B44BF0B7803707047121F17D35B00C8
:1025C00009D151F8043B20F8023B1B0C121F20F8E4
:1025D000023BF6D20BE051F8043B00F8013B1B0A2A
:1025E00020F8023B1B0C121F00F8013BF3D238BF4E
:1025F000121D521E24BF11F8013B00F8013BF8D810
:102600007047430010B410F007034B4C22684FF69C
:10261000FF010A4052EA032248490A43226010BCE3
:10262000704745480068C0F302207047010049B276
:10263000002909D4012210F01F018A4040490300FB
:102640005BB25B0941F82320704710B4020052B21C
:10265000002A05D40A013B4B040064B21A5508E075
:102660000A01394B040064B214F00F04234403F848
:10267000042C10BC704770B4030013F00704D4F1AD
:102680000700052801D3042001E0D4F10700251D2F
:10269000072D01D2002500E0E51E012616FA00F004
:1026A000401E0140A94016FA05F56D1E2A4011434F
:1026B000080070BC704710B50400601EB0F1807F48
:1026C00001D301200EE0601E204908600F215FF059
:1026D000FF30FFF7BAFF00201D49086007201D49A1
:1026E0000860002010BD10B504002000FFF78AFF2D
:1026F00010BD2DE9F04104000D0016000027FFF782
:1027000090FF8046320029004046FFF7B4FF0100E9
:10271000200040B2FFF799FFBDE8F08110B504003A
:10272000200040B2FFF782FF10BD10B5040020006A
:10273000FFF7C1FF10BD00000CED00E00000FA053E
:1027400000E100E000E400E018ED00E014E000E04B
:1027500018E000E010E000E070B505000C00160085
:10276000002D01D1022012E0D5F8B402002802D0D9
:102770000020C5F8B402002C01D0C5F8B0420120F9
:1027800085F89C022E702800FFF7A7FD002070BD81
:1027900002000023002903D0C2F8B412002000E098
:1027A0000220C0B2704710B504002000FFF7D5FD2D
:1027B000002010BD01000020704770B504000D001E
:1027C0000226D4F8B40200280AD02900C9B2200099
:1027D000D4F8B42212689047002801D100200600E6
:1027E0003000C0B270BD38B504000D002900C9B278
:1027F0002000D4F8B42252689047002032BD38B58A
:1028000004000D00290014F52A7000F018FF0120C3
:10281000C4F89402B4F8AE02C4F8980294F8A8027E
:1028200010F01F00002803D002280DD006D311E0BD
:1028300014F52A71200000F02BFB12E014F52A7128
:10284000200000F078FB0CE014F52A71200000F065
:10285000A9FB06E094F8A81211F080012000FFF710
:10286000BCFD002032BDF8B504000F001500380093
:10287000C0B2002839D114F5AA700600D4F8940229
:10288000032826D13069F168884210D2F168306996
:10289000091AF160F0683169884201D2F26800E0FB
:1028A000326992B22900200000F055FF30E0D4F8E0
:1028B000B4020069002808D094F89C02032804D1CF
:1028C0002000D4F8B41209698847200000F050FFB6
:1028D0001EE0D4F8940205281AD10020C4F894020E
:1028E00000212000FFF779FD12E0D4F8B4028069DE
:1028F00000280BD094F89C02032807D13900C9B2F4
:102900002000D4F8B4229269904701E0022000E050
:102910000020F2BDF8B504000D0016002800C0B27A
:10292000002868D114F114000700D4F8940202289A
:102930004AD13869F968884210D2F9683869091AA9
:10294000F960FA6892B23100200000F0DFFE002347
:10295000002200212000FFF7B5FD41E0B868396989
:10296000B0FBF1F201FB1200002817D1B8683969F9
:10297000884213D3B868D4F8981288420ED2002245
:102980000021200000F0C2FE0020C4F898020023BD
:10299000002200212000FFF795FD21E0D4F8B402C9
:1029A000C068002808D094F89C02032804D12000B5
:1029B000D4F8B412C968884780212000FFF70DFDC4
:1029C000200000F0E2FE0BE0D4F89402042803D0CB
:1029D000D4F89402002803D180212000FFF7FDFCE9
:1029E00094F8A002012819D12000FFF7E3FE00208F
:1029F00084F8A00212E0D4F8B402406900280BD099
:102A000094F89C02032807D12900C9B22000D4F809
:102A1000B4225269904701E0022000E00020F2BD9C
:102A200010B504004023002200212000FFF7A4FC81
:102A30000120C4F858014020C4F86401402300225A
:102A400080212000FFF798FC0120A06140206062F7
:102A5000012084F89C020020C4F8940200206060E9
:102A60000020C4F8A402D4F8B802002806D0616897
:102A7000C9B22000D4F8B42252689047002010BD9B
:102A80000200117400207047010091F89C0281F847
:102A90009D02042081F89C0200207047010091F8FB
:102AA0009C02042803D191F89D0281F89C02002029
:102AB000704710B5040094F89C02032809D1D4F89B
:102AC000B402C069002804D02000D4F8B412C96947
:102AD0008847002010BD0000CB48016851F48031C8
:102AE00001607047C8480068400C10F00100704752
:102AF000C6490A689208920002430A607047C348B8
:102B0000006810F00C007047C0490A6832F0F0020B
:102B100002430A607047BD490A6832F4E06202432A
:102B20000A607047B9490A6832F4605202430A6089
:102B30007047B6490A6832F4800202430A6070475F
:102B4000B148016851F0807101607047AE4800687B
:102B5000400E10F00100704710B4AC4B1C6834F408
:102B60007C1410F4403214430C431C6010BC7047BA
:102B700081B0A7490A6802430A60096801400091D0
:102B8000009901B07047A3490A68D208D2000243F5
:102B90000A6070479F48006810F00700704701689E
:102BA00031F0800101607047F0B4012901D10023A8
:102BB00016E0042901D1012312E0102901D10223DA
:102BC0000EE0402901D103230AE0B1F5807F01D155
:102BD000042305E0B1F5806F01D1052300E0062351
:102BE00010F118048C4A1D00EDB2525D14192568CD
:102BF00004268A4A1F00FFB2D25D9640B543256085
:102C0000F0BC70478368864A13400B43836070476B
:102C1000426832F070020A4342607047816831F0C6
:102C2000800181607047C1F30F220261704780B557
:102C300000F0B8FD00F00FF800F0C2F800F045F821
:102C400000F0C2FD002000F0EBFD002000F007FFC7
:102C500000F0E6FEFCE780B50120FFF794FFFFF7E8
:102C600099FF0128FBD1FFF737FFFFF73BFF012852
:102C7000FBD15FF480115FF48030FFF76DFFFFF749
:102C80005FFFFFF763FF0128FBD10020FFF73CFF48
:102C90004FF48060FFF73FFF0020FFF743FF022063
:102CA000FFF726FFFFF72BFF0828FBD15D4801F057
:102CB00087F80F2001F08AF8002801D000F0BCF856
:102CC0005FF48000FFF735FF01BD10B598B0142107
:102CD000002206AC200001F09FF82021002210AC59
:102CE000200001F099F8182100226C46200001F024
:102CF00093F8142100220BAC200001F08DF84FF462
:102D00000060FFF735FF0A20ADF81800002007909B
:102D10002F2008900020099000200A90424C06A91C
:102D2000200001F0C0F82000FFF739FF002120004B
:102D3000FFF768FF002010900020119000201290F3
:102D40000020139000201490002015900020169071
:102D50000020179010AA1021200001F0E0F81021A7
:102D60002000FFF721FF00212000FFF751FF200086
:102D7000FFF754FF002000900020019000200290F7
:102D800000208DF80C000020ADF80E004FF400502C
:102D90000490002005906946200001F0ECF8042022
:102DA000FFF7E6FE21480B9009200C9002200D90C1
:102DB00000200E900BA91E4801F04DFA18B010BD6E
:102DC00030B585B0142100226C46200001F024F8B3
:102DD0002020FFF7CDFE0420FFF7CAFE0820FFF7F2
:102DE000C7FE134C134D29002000FFF71CFF009570
:102DF00001200190022002900420039069462000E7
:102E000001F029FA05B030BD001002400410024064
:102E10001810024000200240947300089C730008C0
:102E2000F8BFFFFF006CDC02002C0140020002042E
:102E3000000801400100010472B6FEE730B404004E
:102E4000080080B200060AD50D00ADB215F00705E6
:102E50002820454304EB050010F1280507E00D008C
:102E6000ADB22820454304EB050010F5B475100001
:102E700080B2002803D100202873EB8005E00120F8
:102E800028732B811800000C6881002030BC70472B
:102E900070B504000D000026287810F060000028AE
:102EA0000AD0202801D040283ED129002000D4F8A3
:102EB000B422926890473BE06878002820D001282F
:102EC00028D0032821D005280BD0062804D00828B4
:102ED00011D009280AD022E02900200000F0A0F932
:102EE00021E02900200000F09CFA1CE029002000CD
:102EF00000F0CBFA17E02900200000F02FFB12E0D1
:102F00002900200000F051FB0DE02900200000F016
:102F100072FB08E02900200000F07AFB03E02900A2
:102F2000200000F0A0FB03E02900200000F09BFB44
:102F30003000C0B270BD70B504000D0000262878C6
:102F400010F06000002803D0202801D0402823D1B1
:102F500094F89C02401E022819D82879022811DA18
:102F600029002000D4F8B422926890470600E8882F
:102F700000280BD13000C0B2002807D1200000F09B
:102F8000F7FB03E02900200000F06DFB03E02900BF
:102F9000200000F068FB03E02900200000F063FB44
:102FA000002070BD2DE9F04104000D000026AF881F
:102FB000287810F0600000280BD0202802D040288C
:102FC00040F0268129002000D4F8B422926890476E
:102FD00022E1287810F06000202807D12900200085
:102FE000D4F8B42292689047C0B217E168780028FC
:102FF00070D001283CD0032840F0058194F89C0251
:10300000022802D0032817D02DE03800C0B20028D3
:103010000DD03800C0B2802809D03900C9B22000D4
:10302000FFF7DBF980212000FFF7D7F903E0290043
:10303000200000F018FB1AE0688800280FD1380043
:10304000C0B200280BD03800C0B2802807D0E88872
:10305000002804D13900C9B22000FFF7BEF92000D2
:1030600000F086FB03E02900200000F0FCFACEE02F
:1030700094F89C02022802D0032817D025E03800DB
:10308000C0B200280DD03800C0B2802809D0390065
:10309000C9B22000FFF7A1F980212000FFF79DF9B8
:1030A00003E02900200000F0DEFA12E06888002822
:1030B0000AD117F07F0F04D03900C9B22000FFF702
:1030C000A1F9200000F054FB03E02900200000F0EB
:1030D000CAFA9CE094F89C02022802D003282FD060
:1030E0008CE03800C0B2002808D03800C0B2802878
:1030F00004D02900200000F0B6FA83E03800C0B206
:1031000000060AD53900C9B211F07F0114204143ED
:1031100004EB010010F1140809E03900C9B211F004
:103120007F011420414304EB010010F5AA78002030
:10313000C8F8000002224146200000F0D1FA61E008
:103140003800C0B200060FD53900C9B211F00F0126
:103150001420414304EB01008069002815D12900A7
:10316000200000F080FA4DE03900C9B211F00F01E3
:103170001420414304EB0100D0F85801002804D189
:103180002900200000F06FFA3CE03800C0B20006D1
:103190000AD53900C9B211F07F011420414304EB74
:1031A000010010F1140809E03900C9B211F07F01E3
:1031B0001420414304EB010010F5AA783800C0B296
:1031C000002803D03800C0B2802803D10020C8F8FE
:1031D00000000DE03900C9B22000FFF728F90028EF
:1031E00003D00120C8F8000002E00020C8F8000069
:1031F00002224146200000F073FA03E0290020007B
:1032000000F031FA03E02900200000F02CFA03E07E
:103210002900200000F027FA3000C0B2BDE8F0819C
:10322000F8B504000D000020ADF8000000260027CE
:10323000688880B2000AC0B201280AD0022810D0E3
:10324000032823D0062800F0A580072800F0B280CC
:10325000C2E06946207CD4F8B0221268904706008C
:10326000BFE0207C002808D16846D4F8B412896AEF
:10327000884706000220707007E06846D4F8B41250
:10328000C96A8847060002207070AAE0A878002862
:1032900008D002282CD018D304284FD03BD30528BF
:1032A0005FD071E0D4F8B0024068002807D06946CA
:1032B000207CD4F8B02252689047060004E0290030
:1032C000200000F0D0F97F1C63E0D4F8B0028068E1
:1032D000002807D06946207CD4F8B0229268904735
:1032E000060004E02900200000F0BDF97F1C50E03A
:1032F000D4F8B002C068002807D06946207CD4F812
:10330000B022D2689047060004E02900200000F0B7
:10331000AAF97F1C3DE0D4F8B0020069002807D06C
:103320006946207CD4F8B02212699047060004E078
:103330002900200000F097F97F1C2AE0D4F8B002A1
:103340004069002807D06946207CD4F8B022526931
:103350009047060004E02900200000F084F97F1C5B
:1033600017E0D4F8B0028069002807D06946207CB5
:10337000D4F8B02292699047060004E029002000AA
:1033800000F071F97F1C04E02900200000F06BF9C7
:103390007F1C26E0207C002806D16846D4F8B412B1
:1033A000496B8847060004E02900200000F05BF923
:1033B0007F1C16E0207C002808D16846D4F8B4129F
:1033C000096B884706000720707004E02900200080
:1033D00000F049F97F1C04E02900200000F043F9C7
:1033E0007F1C3800C0B200281AD1BDF800000028A8
:1033F00010D0E88800280DD0BDF80000E988884288
:1034000002D3E888ADF80000BDF8002031002000AC
:1034100000F066F9E888002802D1200000F0A8F941
:10342000F1BD70B504000D00A888002828D1E888F7
:10343000002825D16888802822D2A87810F07F0043
:10344000060094F89C02032804D12900200000F013
:103450000AF919E084F89E623100C9B22000FFF732
:1034600001F8200000F084F93000C0B2002803D039
:10347000022084F89C0207E0012084F89C0203E00B
:103480002900200000F0EFF870BD70B504000D00B9
:10349000314E688830703078022804DB2900200023
:1034A00000F0E1F857E094F89C02022802D00328CB
:1034B0001BD048E03078002813D0307860600320BB
:1034C00084F89C0231782000FFF777F9022804D1B4
:1034D0002900200000F0C7F83DE0200000F048F986
:1034E00002E0200000F044F935E0307800280CD1EB
:1034F000022084F89C023078606031782000FFF769
:1035000072F9200000F034F91CE0307861688842DC
:1035100015D06168C9B22000FFF765F930786060A6
:1035200031782000FFF749F9022804D12900200052
:1035300000F099F80FE0200000F01AF902E02000F6
:1035400000F016F907E02900200000F08CF831782F
:103550002000FFF748F970BDB818002038B5040006
:103560000D00E888012804D02900200000F07BF835
:103570001AE094F89C02401E012802D9801E09D04E
:103580000EE00020A060012214F10801200000F0EC
:10359000A7F809E00122211D200000F0A1F803E0B6
:1035A0002900200000F05FF831BD38B504000D009F
:1035B00094F89C02401E022818D8E888022804D0FB
:1035C0002900200000F04FF814E00120E060D4F85A
:1035D000A402002803D0E06850F00200E06002225C
:1035E00014F10C01200000F07BF803E0290020001A
:1035F00000F039F831BD38B504000D0068880128A5
:1036000005D10120C4F8A402200000F0B1F831BDBA
:1036100038B504000D0094F89C02401E022809D819
:103620006888012805D10020C4F8A402200000F019
:103630009FF803E02900200000F015F831BD0A785A
:1036400002704A7842708A78CB7812EB032242806B
:103650000A794B7912EB032282808A79CB7912EBBB
:103660000322C280704738B504000D00802120007D
:10367000FEF7B3FE00212000FEF7AFFE31BDF8B526
:1036800004000D0016000027002C1ED0200000F0C2
:103690001DF84000801C308030783900C9B2685471
:1036A0007F1C03203900C9B268547F1C2078002891
:1036B0000BD020783900C9B26854641C7F1C0020EC
:1036C0003900C9B268547F1CF0E7F1BD0200002048
:1036D0001178002902D0401C521CF9E7C0B2704793
:1036E00070B504000D0016000220C4F894023000EA
:1036F00080B2E061300080B2206233009BB22A00C9
:1037000000212000FEF7C3FE002070BD70B504004C
:103710000D00160033009BB22A0000212000FEF7A6
:10372000B6FE002070BD70B504000D001600032029
:10373000C4F89402300080B2C4F85C01300080B25A
:10374000C4F8600133009BB22A0000212000FEF77C
:10375000B9FE002070BD70B504000D0016003300E6
:103760009BB22A0000212000FEF7ACFE002070BDB5
:1037700010B504000420C4F89402002300220021A4
:103780002000FEF784FE002010BD10B504000520C7
:10379000C4F894020023002200212000FEF792FECC
:1037A000002010BD80B50748016851F0100101608C
:1037B0000320FEF798FF0F2000F008FB00F094FDB7
:1037C000002002BD0020024010B5114C002211491A
:1037D0002000FEF7C1FF002801D0FFF72DFB0E49A6
:1037E0002000FEF7D5FF002801D0FFF725FB0B498D
:1037F000200000F062FF002801D0FFF71DFB200031
:10380000FEF7D1FF002801D0FFF716FB10BD00BF67
:10381000C40C0020340100202000002024010020DE
:1038200010B5040000206D49086001F05CF810BD7F
:103830006A4A50609160704738B50400200000F07B
:103840009EF8050065490868401900280BD50868EE
:1038500040420500CD6000230FF2351201212800FF
:1038600001F046F826E0086840195D4A90420CDBFA
:103870005C4A0868121A1500CD6000230FF211127D
:103880000121280001F034F814E0012D08DBCD609F
:1038900000230FF2FD020121280001F029F809E0C0
:1038A000002D07D5CD6000230FF2E502012128008D
:1038B00001F01EF831BD2DE9F04104000D001600A5
:1038C000DFF81881C8F81440C8F818500020C8F86C
:1038D0001000D8F81000A0424FDA01F079F84FF448
:1038E0007A7101FB0500070001F072F8B842FBD1C4
:1038F000D8F80000801900280DD5D8F80000404203
:103900000600C8F81C6000230FF29D020121300060
:1039100000F0EEFF2BE0D8F8000080193049884213
:103920000EDB3049D8F80000091A0E00C8F81C60F8
:1039300000230FF275020121300000F0D9FF16E0DC
:10394000012E09DBC8F81C6000230FF25D02012183
:10395000300000F0CDFF0AE0002E08D5C8F81C604A
:1039600000230FF245020121300000F0C1FFD8F81A
:103970001000401CC8F81000ABE7BDE8F0811A4900
:10398000096848431949096890FBF1F07047000045
:1039900010B50400114A1168D06841181160002167
:1039A00050689268904710BD10B504000B4A10692A
:1039B0005169884208D11168D0694118116001210C
:1039C00050689268904707E01168D069411811600B
:1039D000022150689268904710BD000070180020C6
:1039E00041420F0040420F00C4730008C873000832
:1039F000DFF87C03C0687047DFF8740380697047A4
:103A0000DFF86C0340697047DFF86403C0697047F2
:103A1000DFF85C0300697047DFF854030068704703
:103A200038B5D44800F04AF9002817D00024D24D08
:103A3000D4F5807205EB0401D04800F0DEFF0028C9
:103A400004D0280001F0C2F80400F0E7280001F0DB
:103A5000BDF8010089B2280001F010F931BD10B5A0
:103A60000400C74800F0BAFFC64800F0B7FFC648D8
:103A700000F0B4FF0FF209010020FFF7D9FE10BDDE
:103A80002DE9F14F82B00C00FFF7B2FF0500FFF700
:103A9000BBFF0600FFF7B4FF0090FFF7ADFF070084
:103AA000FFF7B6FF8046FFF7B7FF81462000C0B2A0
:103AB000002816D1484600F050F98346280000F04F
:103AC0004CF90200DFF8C4A25B46B149504601F050
:103AD000E7F883465846010089B2504601F0CEF817
:103AE0005EE02000C0B2012812D1484600F035F94E
:103AF0000300DFF898A23200A649504601F0D0F842
:103B000083465846010089B2504601F0B7F847E0B5
:103B10002000C0B202280ED1DFF870A242469E49B2
:103B2000504601F0BDF883465846010089B2504620
:103B300001F0A4F834E02000C0B203280DD1DFF872
:103B40004CA29649504601F0ABF883465846010016
:103B500089B2504601F092F822E02000C0B2042859
:103B60000DD1DFF828A28E49504601F099F883461E
:103B70005846010089B2504601F080F810E020005C
:103B8000C0B205280CD1DFF804A28649504601F0E6
:103B900087F883465846010089B2504601F06EF816
:103BA000BDE8F78F70B504000D00160009217E48AE
:103BB00001F064F8002070BD2DE9FC4704000D0001
:103BC0001600FFF729FF81466A460121300000F008
:103BD0008AFF82460A220021504601F0C7F80700FA
:103BE000484600F0BAF8804618EB070000F098F855
:103BF000012803D13800FFF71FFE08E018EB07008B
:103C000000F08EF80100C9B20020FFF739FF002054
:103C1000BDE8F6872DE9F34F85B01400FFF7FCFEF1
:103C2000050003AA0121200000F05DFF060002AAA2
:103C30000221200000F057FF070001AA0321200005
:103C400000F051FF80460A220021300001F08EF87A
:103C500081460A220021380001F088F800900A22EB
:103C60000021404601F082F88246280000F075F8F5
:103C700083461BEB0A0009FB00F000F051F8012815
:103C80000DD15046FFF77BFE8246022137A000F09F
:103C9000F5FF524600994846FFF70DFE0AE01BEB80
:103CA0000A0009FB00F000F03BF80100C9B2002057
:103CB000FFF7E6FE002007B0BDE8F08F2DE9F041E8
:103CC0000500280001F08CF806000027300080B2C3
:103CD000874222DA3800010089B2280001F073F827
:103CE0000D2818D10024A74213DBDFF8908008EBE1
:103CF0000401280001F052F818F80400082806D141
:103D0000002C02D1641E7F1E01E0A41EBF1E641C95
:103D1000E9E7012002E07F1CD8E70020BDE8F08140
:103D200001002248814204DB21480322026000682E
:103D300012E02048814204DA1D4804220260006833
:103D40000AE0002904D11A4805220260006803E055
:103D50001748012202600068704717490968484304
:103D60001649096890FBF1F0704700000A0D000049
:103D700070180020A8130020B0160020B0150020F5
:103D8000187300082873000838730008B017002063
:103D9000047100089470000808730008FC6F0008A4
:103DA00048700008947100087473000840420F00C6
:103DB000A4180020C1BDF0FFC0730008BC73000848
:103DC00001490860704700001000002010B5040091
:103DD0004FF47A700D490978B0FBF1F00C4909688D
:103DE000B1FBF0F0FEF7A1FC002801D001200CE0AF
:103DF000102C09D2002221005FF0FF30FEF779FC81
:103E000004480460002000E0012010BD04020020EE
:103E1000100000200C00002062F30F2262F31F420A
:103E2000401810F0030308D0C91A1FD3DB0748BF9E
:103E300000F8012D28BF20F8022D130030B41446DD
:103E40001546103928BF20E93C00FAD8490728BF99
:103E500020E90C0048BF40F8042D890028BF20F855
:103E6000022D48BF00F8012D30BC7047C91818BF9B
:103E700000F8012DCB0728BF00F8012D7047000086
:103E800081627047C1627047016370474163704748
:103E900081637047C163704701647047416951F0A5
:103EA000010141617047F8B504000D002768DFF893
:103EB000E462B4420AD0B4F1804F07D0DFF8D802F0
:103EC000844203D0DFF8D402844203D137F0700774
:103ED00068680743B4420AD0B4F1804F07D0DFF8D6
:103EE000B802844203D0DFF8B402844203D137F42D
:103EF0004077E86807432760A9682000FFF7C2FF02
:103F000029882000FFF7BCFFB44203D129692000B3
:103F1000FFF7BAFF2000FFF7C1FF0020F2BDF8B5A0
:103F200004000D00160001272800012808D01028E1
:103F30000CD0B0F5807F0FD0B0F5805F12D017E0C5
:103F40003100200000F03BF8070011E031002000B4
:103F500000F073F807000BE03100200000F0ACF82F
:103F6000070005E03100200000F0E4F80700FFE75B
:103F70003800C0B2F2BD02000023087B60F30703E3
:103F800033F440738868034333F480634868034321
:103F900033F400630868034333F48053C889034350
:103FA00033F400530869034333F4804348690343FF
:103FB00033F40043486903435364002070472DE9FC
:103FC000F04104000D00206A400840002062266A8B
:103FD0006768D4F818805FEA98085FEA880838F0C4
:103FE0007008286850EA080836F002062869064377
:103FF00076087600686806436648844212D136F037
:104000000806686956EA800636F00406A86856EA8B
:10401000800637F48077A869074337F40077E869AA
:1040200057EA40076760C4F81880E9682000FFF786
:104030002DFF26620020BDE8F0812DE9F04104004B
:104040000D00206A30F010002062D4F820806668ED
:10405000A76937F4407737F4E047286857EA002724
:1040600038F02008286958EA001838F01008686805
:1040700058EA00184748844213D138F0800868692C
:1040800058EA801838F04008A86858EA801836F4D2
:104090008066A86956EA800636F40066E86956EA42
:1040A000C0066660A761E9682000FFF7F1FEC4F86A
:1040B00020800020BDE8F0812DE9F04104000D00D2
:1040C000206A30F480702062D4F820806668E76946
:1040D000BF08BF0037F070072868074338F400783E
:1040E000286958EA002838F48078686858EA002877
:1040F0002848844213D138F40068686958EA802857
:1041000038F48068A86858EA802836F48056A86990
:1041100056EA001636F40056E86956EA401666601C
:10412000E761E9682000FFF7B5FEC4F820800020B1
:10413000BDE8F0812DE9F04104000D00206A30F463
:1041400080502062D4F820806668E76937F44077B1
:1041500037F4E047286857EA002738F40058286900
:1041600058EA003838F48058686858EA0038094836
:10417000844204D136F48046A86956EA8016666007
:10418000E761E9682000FFF787FEC4F8208000207F
:10419000BDE8F081002C0140000400400008004010
:1041A000F0B410EB116491FAA1F3B3FA83F391FA2E
:1041B000A1F5B5FA85F526680F27DBB29B009F4075
:1041C000BE43EDB2AB0012FA03F31E432660F0BC0F
:1041D0007047F0B410EB116491FAA1F3B3FA83F3D2
:1041E00091FAA1F5B5FA85F526680327DBB29B00A5
:1041F0009F40BE43EDB2AB0012FA03F31E432660AC
:10420000F0BC7047F0B410EB116491FAA1F3B3FA6B
:1042100083F391FAA1F5B5FA85F526680427DBB298
:104220009B009F40BE43EDB2AB0012FA03F31E4366
:104230002660F0BC704710B4C36833EA11230C0049
:10424000240A94FAA4F4B4FA84F412FA04F423438A
:10425000C36010BC70472DE9F04104000D002F68C9
:104260003F023F0C97FAA7F0B0FA80F8380030FA16
:1042700008F0002835D0380030FA08F0C0072DD5F6
:10428000B8F1080F05D240F2011010FA08F006004C
:1042900007E05FF0011118F1F800814051F08061F2
:1042A0000E006868082804D12A6931002000FFF751
:1042B000C2FF6A6831002000FFF772FF68680128BA
:1042C00002D06868092809D1AA6831002000FFF7E8
:1042D00080FFEA6831002000FFF794FF18F1010821
:1042E000C4E70020BDE8F08181B00E48016851F0BC
:1042F00001010160006810F00100009000980A4878
:10430000016851F080510160006810F08050009009
:1043100000980649086830F0E06050F000700860CE
:1043200001B07047181002401C1002400400014008
:10433000F8B505000E000027287C002813D14FF4A3
:104340000073022281212800FEF716F80120E8629E
:104350004FF40073022201212800FEF70DF801201E
:10436000C5F86C0110E04023022281212800FEF7ED
:1043700003F80120E8624023022201212800FDF712
:10438000FBFF0120C5F86C010823032282212800CD
:10439000FDF7F2FF012028644FF40770FEF7B7F82D
:1043A000C5F8B802D5F8B802002802D101200700EC
:1043B0001FE0D5F8B8020400D5F8BC0200688047B9
:1043C0000020C4F814020020C4F81802287C002839
:1043D00008D14FF40073D4F8042201212800FEF71D
:1043E00071F806E04023D4F8042201212800FEF7EA
:1043F00069F83800C0B2F2BD70B504000D000026A7
:1044000081212000FDF7D4FF0020E062012120007F
:10441000FDF7CEFF0020C4F86C0182212000FDF7DB
:10442000C7FF00202064D4F8B80200280AD0D4F8CE
:10443000BC0240688047D4F8B802FEF775F8002047
:10444000C4F8B8023000C0B270BDF8B504000D0069
:10445000D4F8B86200208DF800000020ADF802000A
:104460000027287810F06000002828D0202863D189
:10447000E88800281BD0287800060CD5EA8831008F
:104480006878D4F8BC329B689847EA8831002000ED
:10449000FFF726F912E0687886F80002E88886F8C7
:1044A0000102EA8831002000FFF73DF906E0002212
:1044B00029006878D4F8BC329B68984742E0687855
:1044C000002804D00A2814D00B2823D02DE094F81B
:1044D0009C02032806D102220DF102012000FFF701
:1044E000FFF805E029002000FFF7BDF802200700D3
:1044F00021E094F89C02032805D10122694620009E
:10450000FFF7EEF805E029002000FFF7ACF80220E5
:10451000070010E094F89C02032805D02900200031
:10452000FFF7A1F80220070005E029002000FFF7AF
:104530009AF80220070005E029002000FFF793F811
:10454000022007003800C0B2F2BD2DE9F047040098
:104550000D00D4F8B862D4F8C072D4F8B8020028BC
:104560005DD014222800C0B250432044C069002806
:1045700021D02800C0B250432044C0692B00DBB2D8
:1045800028214B4307EB0301896BB0FBF1F301FBDF
:10459000130000280FD12800C0B202FB00F204EB88
:1045A00002000021C161002300222900C9B22000BD
:1045B000FDF76DFF31E0DFF84C82404600F010FC63
:1045C000002827D0404600F00BFC8146B9F1410F8E
:1045D00001D3402081465FF0000ACA4508DA8A48C4
:1045E00000EB0A01404600F0D9FB1AF1010AF4E79A
:1045F0008548C6F80802C6F81092D6F81002206363
:10460000D6F810329BB2D6F8082281212000FDF79F
:104610003EFF02E00020C6F81402002000E0022065
:10462000BDE8F08770B504000D00D4F8B862290029
:10463000C9B22000FDF761FFC6F80C02D4F8B80239
:10464000002809D016F50371D6F80402D4F8BC226C
:10465000D2689047002000E0022070BD38B5040009
:10466000D4F8B852D4F8BC02002810D095F8000253
:10467000FF280CD095F8012292B2290095F800028B
:10468000D4F8BC329B689847FF2085F800020020D0
:1046900032BD0100432008805C4870470100432080
:1046A00008805B48704701004320088059487047E4
:1046B00001000A20088058487047020002200029A3
:1046C00003D0C2F8BC1200231800C0B2704710B467
:1046D0000300D3F8B842C4F80812100080B2C4F83E
:1046E0001002002010BC70470200D2F8B832C3F8A4
:1046F00004120020704738B50400D4F8B852D4F83A
:10470000B802002816D0D5F81402002810D10120D4
:10471000C5F81402D5F810022063D5F810329BB208
:10472000D5F8082281212000FDF7B1FE002002E02B
:10473000012000E0022032BD38B50400D4F8B852A0
:10474000D4F8B802002814D0207C002808D14FF4F7
:104750000073D5F8042201212000FDF7B3FE06E026
:104760004023D5F8042201212000FDF7ABFE0020F4
:1047700000E0022032BD2DE9F84F04000D001600C4
:104780000027D4F8B8825FF00009300080B281457C
:1047900007DA05EB09011B4800F0EAFA19F10109F3
:1047A000F3E7D8F81402002827D1DFF858904846DC
:1047B00000F016FB002820D0484600F011FB82468E
:1047C000BAF1410F01D3402082465FF0000BD34580
:1047D00008DA0D4800EB0B01484600F0DFFA1BF148
:1047E000010BF4E75046020092B207492000FFF7A0
:1047F0006EFF2000FFF77FFF07003800C0B2BDE862
:10480000F28F0000AC140020301800209C00002023
:1048100058000020E000002014000020010049B2F0
:10482000002909D4012210F01F018A4062490300C7
:104830005BB25B0941F823207047016851F0010128
:104840000160704701684908490001607047C16212
:10485000704701637047026A0A4302627047416C05
:1048600051F40041416470477FF0010101617047DC
:10487000006910F001007047C16851F00101C1608A
:104880007047C16849084900C1607047416951F0EB
:10489000010141617047C1F30F224261704738B591
:1048A000464C2000FFF7E0FF454DA868C01EA860F9
:1048B000A868062808DAA868042805DBA968091F83
:1048C0002000FFF7C6FF0DE0A86801280ADA2000E3
:1048D000FFF7B8FF2000FFF7D4FF0020A86068684A
:1048E0002968884731BD80B51920FFF797FF01BDC2
:1048F000F8B504000D0016001F0000F00AF82800AB
:10490000C0B200F00CF83A003100200000F012F8BC
:10491000F1BD80B52B492C48FFF7BDFF01BD10B597
:1049200004002A482100C9B230F811102348FFF7CB
:104930008EFF10BD2DE9F04104000D001600204F40
:104940003D607E60BC60DFF874804046FFF78CFFFE
:10495000B868042805DAB968491E4046FFF779FFB0
:1049600003E002214046FFF774FF4046FFF78EFF49
:104970004046FFF77DFF0028FAD04046FFF774FF5E
:10498000B868062807DAB868042804DBB968091F84
:104990004046FFF75EFF10214046FFF75CFF4046B0
:1049A000FFF75DFF4046FFF767FF4046FFF745FF13
:1049B000BDE8F0810000000000E100E0002C0140B3
:1049C00090180020010001040008014068730008ED
:1049D00001480068704700BFA818002010B5040007
:1049E000082000F003FA002806D00460002141608E
:1049F00064490A685060086010BD2DE9F04707005F
:104A0000884691460124DFF880A1DAF800000028EA
:104A10003DD15E48CAF80000DAF80000002836D020
:104A2000DAF80000006800680500280000F0CEF801
:104A3000060032002900380000F0FEF9002820D1DD
:104A4000B85D202808D0B85D002805D0B85D0D28D5
:104A500002D0B85D0A2814D1DAF80000006890F995
:104A60000C0000280CD4380000F098F8DAF8001098
:104A7000096891F90C1040B2884201D0002004006E
:104A800005E0DAF800004068CAF80000C4E7DAF888
:104A9000000000280AD0002C08D14A463C49404674
:104AA00000F0DEF90020CAF8000019E0DAF8000092
:104AB00000280ED03A0049464046DAF800301B681C
:104AC0009B6898470400002C0AD10020CAF8000017
:104AD00006E04A462F49404600F0C2F90020040093
:104AE0002000BDE8F08730B404000025002300203A
:104AF00010608D4227DA2078002804D02078202802
:104B000001D0641CF7E72078002804D02078202802
:104B100001D1641CF7E72078002814D06D1C8D4269
:104B2000E7D123002078002807D02078202804D05F
:104B30001068401C1060641CF4E71068002801D164
:104B400000200300FFE7180030BC7047F8B50400F0
:104B50000D001600104F3868002801D10B4838604E
:104B60002A00386800684168200000F079F9386848
:104B7000406838603868002801D1002000E001203A
:104B8000F2BD0000080000209C180020000000205A
:104B9000FC6E0008586F0008A018002002000020DA
:104BA0000023117800290CD01178202905D1012B80
:104BB00005D0401C01210B0001E000210B00521C1C
:104BC000EFE7012B00D1401E40B2704700F1010316
:104BD000810704D010F8011B820781B1FAD1026865
:104BE000A2F10131914311F0803104BF50F8042F3C
:104BF000F6E709BAB1FA81F100EBD100401CC01A06
:104C00007047000010B5224C002222492000FFF717
:104C10005EFD21492000FFF767FD002010BD002048
:104C2000704703001800C0B2002810D001280FD030
:104C300002280ED003280DD004280CD020280BD039
:104C400021280AD0222809D0232808D008E007E02C
:104C500006E005E004E003E002E001E000E0FFE739
:104C60000020704738B504000D0021000B4800F00B
:104C70007FF80748FFF760FD002032BD38B504001B
:104C80000D002A0092B221000148FFF774FD32BDE9
:104C9000C40C0020F005002008020020A81300200A
:104CA0000CB430B583B00A4606A90291044600252B
:104CB0000194009502AB01A9084878441E3000F029
:104CC00007F9019A157000284EBF04460198041B8D
:104CD000204603B030BC5DF80CFB00BF07D5FFFFDA
:104CE0002DE9F84381460D0090461C4608BF6D46ED
:104CF0004F4600E07F1C387801F0F7F80028F9D122
:104D00003E782D2E18BF2B2E05D117F8010F01F07C
:104D1000ECF850B900E02B26234642462946384697
:104D200001F0EEF829688F4204D1C5F80090002008
:104D3000BDE8F2832B2E04D1B0F1004F06D2BDE8BE
:104D4000F2832D2EFBD1B0F1004F0CD9AFF30080D0
:104D50000CB1012020602D2E14BF6FF000404FF0E9
:104D60000040BDE8F2834042BDE8F2830023B7E78C
:104D700010B403885B1C9BB24FF4807493FBF4F275
:104D800004FB1232130044889BB2A34204D00B7878
:104D9000048804442371028010BC704710B4438817
:104DA0005B1C9BB24FF4807493FBF4F204FB123251
:104DB00043880488A34204D0438803441B790B70C2
:104DC000428010BC7047428889B289180844007933
:104DD0004FF4807190FBF1F201FB1200C0B27047FA
:104DE000010008884988401A80B2704770B5C51D17
:104DF000ED08AFF30080ED00072D98BF08250D4E9C
:104E000034682CB901F01CF900283060F7D10CE0AF
:104E10002068A842F6D36119451B14BF0D6000211C
:104E20003160AFF30080204670BDAFF300800020FA
:104E300070BD0000B018002004E010F8013B6BB119
:104E4000491C521E52B10B7890F800C09C45F4D01A
:104E500002D24FF0FF3070470120704700207047AA
:104E600001B58B071AD1830724D1121F21D351F822
:104E7000043BA3F1013C2CEA030C1CF0803C04BF72
:104E800040F8043BF1E79CFA8CFCBCFA8CF1C1F1D0
:104E900018018B40CB4040F8043B13E0042A09D3AF
:104EA00011F8013B521E00F8013B5BB18B07F7D1B3
:104EB000D9E7121D5AB111F8013B521E00F8013B0F
:104EC00003B1F8D111001CBF0022FEF7A9FF01BDFC
:104ED0002DE9F14FB2B09A46914600230691CDE9F3
:104EE00000333C9A0F930DF14A0114914A7011E07E
:104EF000329E4F462C4617F8011B0698B0470028F3
:104F0000069000F026810F98401C641E0F90F2D18D
:104F10003296A94499F80000252808D100210022E2
:104F200009910A920B910C920D910E920FE06A4634
:104F30004FF0FF31484601F0E3F8050002D10F9829
:104F400000F00CBED4D50125E3E741F0010119F8CA
:104F5000010F2028F9D023280CD02B2804D02D288D
:104F600005D0302809D00BE041F00201EFE741F015
:104F70000401ECE741F00801E9E741F01001E6E740
:104F80002A280FD1DAF8002052F8040BCAF80020C2
:104F90000028119003D54042119041F0040109F11D
:104FA000010914E01192DFF8503B0AE01198984291
:104FB00005DA00EB800402EB4402303A119209F169
:104FC000010999F80020A2F130000A28EED399F8DF
:104FD00000002E2803D04FF0FF32109229E019F87C
:104FE000010F2A2809D1DAF8000050F8042BCAF87A
:104FF0000000109209F101091BE02D280CBF09F1F6
:105000000109002000221092DFF8EC2A0BE040B9E1
:10501000109B934205DA03EB830504EB4504303C17
:10502000109409F1010999F80040A4F130030A2B0A
:10503000EDD3ADF848100FF6C42099F8001001F038
:1050400069F808B119F8010B8DF84A009DF84A007B
:10505000682805D199F8000068280CD1622106E083
:105060006C2804BF99F800006C2804D171218DF8D8
:105070004A1009F101091FA8089019F801BBBBF1FA
:1050800025012DD01C3900F06281091F022940F250
:105090005E810E392AD0491F00F06584093900F07D
:1050A0005681891E00F0FB84491E00F0A784491E2A
:1050B000022940F24C81091F00F0A084491F00F032
:1050C000BB80491E00F04F84491E65D0C91E21D007
:1050D000891E00F04884C91E00F0458400F0FEBC23
:1050E00025238DF87C30012109912AE06C208DF870
:1050F0004A00DAF8000050F8042BCAF80000002A31
:1051000043D11499487800283DD04FF0FF340FF672
:10511000F41012E09DF84A006C28EAD0DAF800009A
:1051200050F8044BCAF800000794D4B91499487891
:1051300098B14FF0FF340FF6E81000F0F7FF201A97
:1051400007D132981FAA04A900F00BFD00287FF5B3
:10515000E1AE4FF0FF3000F001BD0FF6E010079018
:10516000EFE7109D002D04D52046FFF72FFD0446E4
:1051700007E02A46204600F0F9FF002814BF041B70
:105180002C460A94DDE70FF6B812329804A900F015
:105190006EFD0028D5D5DCE7DAF8001051F8040BD5
:1051A000CAF8001020F00004002121F0FF351FABE9
:1051B000CDE904450793DDE9042308993C2413B99C
:1051C0000AB91098A0B102F00F05641E30353A2DCF
:1051D00008DA12090D5542EA03721B0908BF002ABA
:1051E00002D105E02735F4E707980D19A842EAD364
:1051F00008190790C4F13C0210980A92824209DA19
:10520000BDF84810821A4FF6EF7001400C92ADF8CD
:10521000481096E7002894D59DF8480000F0140047
:1052200010288ED1119B09990C985B1A1B1A9A1A97
:10523000002A86DD0C9284E71499487820B14FF05B
:10524000FF340FF6001078E79DF84A00622862D01C
:10525000682819D06A2840D06C2806D071284DD013
:1052600074282DD07A281ED064E0DAF8001051F8A6
:10527000040BCAF8001020B94FF0FF340FF640407D
:105280005BE70F9901605CE7DAF8001051F8040B56
:10529000CAF8001020B94FF0FF340FF624404CE755
:1052A0000F9901804DE7DAF8001051F8040BCAF8A5
:1052B00000100028E5D14FF0FF340FF604403CE722
:1052C000DAF8001051F8040BCAF800100028D8D101
:1052D0004FF0FF340FF6E8302FE7DAF8001051F8FE
:1052E000040BCAF8001020B94FF0FF340FF6D0308D
:1052F00023E70F9AD317C0E9002322E7DAF800105A
:1053000051F8040BCAF800100028F2D14FF0FF3416
:105310000FF6AC3011E7DAF8001051F8040BCAF8B8
:10532000001020B94FF0FF340FF6943005E70F99C5
:10533000017006E7DAF8001051F8040BCAF8001003
:1053400000289ED14FF0FF340FF67430F5E6DAF8FE
:105350000020D21D22F00702CAF80020D2E9000185
:105360000832CAF80020CDE90401C80F02D009981C
:105370002D210AE0BDF84800810702D509982B21AC
:1053800003E0C00705D5099820211FAA1154401C2D
:1053900009901FA80999DDE9044543184BF0200046
:1053A0006128079315AE0BD01098002802D506206F
:1053B000109005E001BF4BF02000672801211091FB
:1053C000DDE9040148004015401C0A4611D10903DB
:1053D0000FD0ABF1610703201A2F0A9002D20FF60B
:1053E000F82101E00FF6F42103221846FDF7B6F884
:1053F000A7E650B9120308D1ABF1610703201A2FB9
:105400000A9018D30FF6DC21EEE7DDE9040102AAC9
:1054100000F0D8FECDE904014BF02000612811D145
:10542000079830210170821C0792BBF1610F0CBFFD
:105430007821582102E00FF6A821D5E7417009989C
:10544000801C0990DDE9040120F0000231F00043E6
:1054500008BF002A02D10025002446E14BF02008B5
:10546000B8F1610F40F095801098002847BF2121C6
:105470000391401C0390039F7F1C20462946002275
:105480000023DDE9044500F0D5FE38BF85F0004576
:1054900002998DF85420091F002F02910DF155003B
:1054A00034DD0646204629460022002300F0DCFEBB
:1054B0002BD21C2200F0F2FE04460D4600F08CFFB9
:1054C000FF1F002F804609DD00F0A2FF02460B46B9
:1054D0002046294601F064F804460D46F01D0721D8
:1054E000B8F1000F0CDD491E5EBF08F00F0200F896
:1054F000012D4FEA2818F3D502E0002200F8012D13
:10550000491EFAD5C61D002FCCDC30460DF15501E1
:10551000401A03990DF1550605468842C8BF0D464D
:10552000002D2FD4854206DA0DF15500415D082982
:10553000A8BF0F2000DA0020294615AA0A4400E07F
:105540006D1E12F80139491E8342F9D00F2804D18B
:105550000DF15500425C521C4254002904D50298BA
:10556000001D15AE6D1C0290681E0BD431180A7810
:105570003032D3B23A2BA4BF5A443A3A401E01F813
:105580000129F4D51098002840F1AE80691E1091D1
:10559000AAE00299DFF8E82847F29750414391FBCF
:1055A000F2F2029225F00045C2F10702002A04DD62
:1055B0002046294600F041FC0BE052420020DFF873
:1055C000C41800F03AFC02460B462046294601F07A
:1055D00059F804460D46B8F1660F06BF029F0A3718
:1055E000062710983F18142FC8BF142730208DF8B5
:1055F00054000020DFF89018CDE92E010DF155067A
:10560000002F33DD2046294601F060F901460A46A5
:1056100006F1080304200A26B2FBF6F606EB860E16
:10562000A2EB4E02303203F8012C0A22B6FBF2F252
:1056300002EB820EA6EB4E063036401E03F8026DDA
:10564000E9D1083F002F03F10806D9DD084601F033
:105650004FF902460B462046294600F0A1FFDDE93E
:105660002E2301F053F904460D46CBE70DF155000A
:10567000301A0DF1550604E00299491E401E0291B0
:10568000761C31783029F7D0B8F1660F02D1029933
:10569000491C04E0B8F1650F0CBF01210021109DE9
:1056A0004D19A842B8BF451E002D1DD4854204DA0D
:1056B000705D3428C8BF392000DC30202946721EB6
:1056C000531800E06D1E13F80149491E8442F9D0B9
:1056D000392802D1705C401C7054002904D502980E
:1056E000401C16466D1C0290029C00F00DFD406AA5
:1056F0000778DDF8408028B2002802DC01250FF28F
:10570000E8764BF02000662808BF641C16D0672896
:1057100046D120B210F1040F48DB404546DA9DF82F
:105720004800641C010703D428B24045D8BF804616
:1057300020B2B8EB000848BF4FF000080FFA84FB16
:1057400007980A99BBF1000F00F3B3804A1C0A9234
:1057500030234354B8F1000F03DC9DF848000107E3
:1057600004D50A98411C0A9107990F5418EB0B0FA6
:10577000B8BFC8F1000424B26042A0442AB20D9020
:105780009045B8BF4546079B0A982DB20B952A460F
:1057900031461844FCF7E2FEA8EB05000E90CCE081
:1057A000BBF1610F17D14FF0700B19E028B24045E3
:1057B00004DA9DF848100A0758BF8046B8F101087E
:1057C00048BF4FF00008BBF1670F14BF4FF0450B07
:1057D0004FF0650B04E0BBF1410F08BF4FF0500BD9
:1057E0000A98411C0A91B8F1000F079916F8012B8D
:1057F0000A5403DC9DF8480001071AD50A98411C99
:105800000A91B8F1000F07990F5412DD6D1E28B2EE
:105810008045B8BF454607980A9B2AB231461844CE
:10582000FCF79CFE0A992DB269180A91A8EB0500B5
:105830000D9007980A99084421B2002980F800B019
:1058400003D42B224270821C04E02D2242700C46AD
:10585000821C644200212EAB20460AE004460A2046
:1058600094FBF0F000EB8005A4EB450403F8014B3A
:10587000491C00B20028F1DC012906DC4BF02000B5
:10588000652804BF302002F8010B00292EAB08D197
:10589000302002F8010B06E0491E585C303002F857
:1058A000010B0029F8DC07990A980844121A0B9298
:1058B00043E0084429B222B2914219DA2AB23146B1
:1058C000FCF74CFE0A992DB269180A91ABEB050062
:1058D000B8F1000F0D9003DC9DF84800020704D5D5
:1058E000079847540B99491C0B91CDF8388024E058
:1058F0003146FCF733FE0A982D1B5844B8F1000FCF
:105900000A9003DC9DF848100A0703D5411C0A9150
:1059100007990F5428B28045B8BF454607980A9B9F
:105920002AB206EB0B011844FCF718FE0A982DB2B8
:1059300028180A90A8EB05000D909DF8480000F08B
:10594000140010287FF4FDAB099A0A990D988A1863
:105950000B9982180E988A18821811988242BFF605
:10596000F0AB821A66E49DF84A00622808D06828E5
:105970000ED06A2814D06C281FD0712810D01CE0DB
:10598000DAF8001051F8040BCAF80010C0B21AE09F
:10599000DAF8001051F8040BCAF8001080B212E0D7
:1059A000DAF80020D21D22F00702CAF80020D2E95E
:1059B00000010832CAF8002006E0DAF8001051F8B9
:1059C000040BCAF800100021CDE904019DF848003D
:1059D00001075AD5DDE90423002B08BF002A54D063
:1059E0004BF02000782850D109981FA930220A5482
:1059F000401C431C099301F800B046E09DF84A00A2
:105A0000622808D068280ED06A2814D06C281FD0CD
:105A1000712810D01CE0DAF8001051F8040BCAF815
:105A2000001040B21AE0DAF8001051F8040BCAF87E
:105A3000001000B212E0DAF80020D21D22F00702B6
:105A4000CAF80020D2E900010832CAF8002006E0B6
:105A5000DAF8001051F8040BCAF80010C117CDE9AC
:105A60000401002902D509982D210AE0BDF848005B
:105A7000810702D509982B2103E0C00705D50998B5
:105A800020211FAA1154401C09901FA80999014404
:105A9000079104A8594600F04AF9FFF752BB9DF858
:105AA0004A006C280BD001210991DAF8000050F867
:105AB000041BCAF800008DF87C10FFF742BBDAF82F
:105AC000000050F8041BCAF8000002914FF0FF32AA
:105AD00010920021039102AAFFF757BB2521012252
